{
  "contractName": "register",
  "abi": [
    {
      "constant": false,
      "inputs": [
        {
          "internalType": "bytes32",
          "name": "_name",
          "type": "bytes32"
        },
        {
          "internalType": "bytes32",
          "name": "_bs",
          "type": "bytes32"
        },
        {
          "internalType": "bytes32",
          "name": "_email",
          "type": "bytes32"
        },
        {
          "internalType": "bytes32",
          "name": "_mobile",
          "type": "bytes32"
        },
        {
          "internalType": "bytes32",
          "name": "_password",
          "type": "bytes32"
        }
      ],
      "name": "addAccount",
      "outputs": [],
      "payable": false,
      "stateMutability": "nonpayable",
      "type": "function"
    },
    {
      "constant": true,
      "inputs": [],
      "name": "viewAccounts",
      "outputs": [
        {
          "internalType": "bytes32[]",
          "name": "",
          "type": "bytes32[]"
        },
        {
          "internalType": "bytes32[]",
          "name": "",
          "type": "bytes32[]"
        },
        {
          "internalType": "bytes32[]",
          "name": "",
          "type": "bytes32[]"
        },
        {
          "internalType": "bytes32[]",
          "name": "",
          "type": "bytes32[]"
        },
        {
          "internalType": "bytes32[]",
          "name": "",
          "type": "bytes32[]"
        }
      ],
      "payable": false,
      "stateMutability": "view",
      "type": "function"
    },
    {
      "constant": true,
      "inputs": [
        {
          "internalType": "bytes32",
          "name": "_mobile",
          "type": "bytes32"
        },
        {
          "internalType": "bytes32",
          "name": "_password",
          "type": "bytes32"
        }
      ],
      "name": "loginAccount",
      "outputs": [
        {
          "internalType": "bool",
          "name": "",
          "type": "bool"
        }
      ],
      "payable": false,
      "stateMutability": "view",
      "type": "function"
    }
  ],
  "bytecode": "0x608060405234801561001057600080fd5b506106fd806100206000396000f3fe608060405234801561001057600080fd5b50600436106100415760003560e01c806308e6085a1461004657806370ca3ea8146101c5578063f229ee7b1461021b575b600080fd5b61004e61026b565b60405180806020018060200180602001806020018060200186810386528b818151815260200191508051906020019060200280838360005b838110156100a1578082015181840152602081019050610086565b5050505090500186810385528a818151815260200191508051906020019060200280838360005b838110156100e35780820151818401526020810190506100c8565b50505050905001868103845289818151815260200191508051906020019060200280838360005b8381101561012557808201518184015260208101905061010a565b50505050905001868103835288818151815260200191508051906020019060200280838360005b8381101561016757808201518184015260208101905061014c565b50505050905001868103825287818151815260200191508051906020019060200280838360005b838110156101a957808201518184015260208101905061018e565b505050509050019a505050505050505050505060405180910390f35b610219600480360360a08110156101db57600080fd5b810190808035906020019092919080359060200190929190803590602001909291908035906020019092919080359060200190929190505050610428565b005b6102516004803603604081101561023157600080fd5b8101908080359060200190929190803590602001909291905050506105ba565b604051808215151515815260200191505060405180910390f35b606080606080606060006004600160026003848054806020026020016040519081016040528092919081815260200182805480156102c857602002820191906000526020600020905b8154815260200190600101908083116102b4575b505050505094508380548060200260200160405190810160405280929190818152602001828054801561031a57602002820191906000526020600020905b815481526020019060010190808311610306575b505050505093508280548060200260200160405190810160405280929190818152602001828054801561036c57602002820191906000526020600020905b815481526020019060010190808311610358575b50505050509250818054806020026020016040519081016040528092919081815260200182805480156103be57602002820191906000526020600020905b8154815260200190600101908083116103aa575b505050505091508080548060200260200160405190810160405280929190818152602001828054801561041057602002820191906000526020600020905b8154815260200190600101908083116103fc575b50505050509050945094509450945094509091929394565b600560003373ffffffffffffffffffffffffffffffffffffffff1673ffffffffffffffffffffffffffffffffffffffff16815260200190815260200160002060009054906101000a900460ff161561047f57600080fd5b6001600560003373ffffffffffffffffffffffffffffffffffffffff1673ffffffffffffffffffffffffffffffffffffffff16815260200190815260200160002060006101000a81548160ff021916908315150217905550600085908060018154018082558091505090600182039060005260206000200160009091929091909150555060048490806001815401808255809150509060018203906000526020600020016000909192909190915055506001839080600181540180825580915050906001820390600052602060002001600090919290919091505550600282908060018154018082558091505090600182039060005260206000200160009091929091909150555060038190806001815401808255809150509060018203906000526020600020016000909192909190915055505050505050565b6000806000809050600560003373ffffffffffffffffffffffffffffffffffffffff1673ffffffffffffffffffffffffffffffffffffffff16815260200190815260200160002060009054906101000a900460ff1661061857600080fd5b600060038054905011156106bf57600091505b60038054905082101561066857836003838154811061064657fe5b9060005260206000200154141561065b578190505b818060010192505061062b565b836003828154811061067657fe5b90600052602060002001541480156106a45750846002828154811061069757fe5b9060005260206000200154145b156106b4576001925050506106c2565b6000925050506106c2565b50505b9291505056fea265627a7a723158209428cb68f7ce2c7a0c4401fc5e32b4bd6795a4f786a2064a7766596cb22a0a2764736f6c63430005100032",
  "source": "pragma solidity 0.5.16;\r\n\r\n\r\ncontract register {\r\n\tbytes32[] internal name;\r\n\tbytes32[] internal email;\r\n\tbytes32[] internal mobile;\r\n\tbytes32[] internal password;\r\n\tbytes32[] internal bs;\r\n\tmapping(address => bool) internal users;\r\n\t\t\r\n\tfunction addAccount(bytes32 _name,bytes32 _bs,bytes32 _email, bytes32 _mobile, bytes32 _password) public {\r\n\r\n\t\trequire(!users[msg.sender]);\r\n\t\t\r\n\t\tusers[msg.sender]=true;\r\n\t\tname.push((_name));\r\n\t\tbs.push((_bs));\r\n\t\temail.push((_email));\r\n\t\tmobile.push((_mobile));\r\n\t\tpassword.push((_password));\t\r\n\t}\r\n\t\r\n\tfunction viewAccounts() public view returns(bytes32[] memory, bytes32[] memory, bytes32[] memory, bytes32[] memory, bytes32[] memory) {\r\n\t\treturn(name, bs, email,mobile,password);\r\n\t}\r\n\r\n\tfunction loginAccount(bytes32 _mobile, bytes32 _password) public view returns(bool){\r\n\t\t\r\n\t\tuint i;\r\n\t\tuint j=0;\r\n\r\n\t\trequire(users[msg.sender]);\r\n\r\n\t\tif(password.length>0) {\r\n\t\t\tfor(i=0;i<password.length;i++) {\r\n\t\t\t\tif((password[i])==(_password)) {\r\n\t\t\t\t\tj=i;\r\n\t\t\t\t}\r\n\t\t\t}\r\n\t\t\r\n\t\t\r\n\t\t\tif(password[j]==_password && mobile[j]==_mobile) {\r\n\t\t\t\treturn true;\r\n\t\t\t}\r\n\t\t\telse {\r\n\t\t\t\treturn false;\r\n\t\t\t}\r\n\t\t}\r\n\t}\r\n}\r\n",
  "sourcePath": "C:/Users/maddy/desktop/land-registration-demo/registration-dapp/contracts/register.sol",
  "compiler": {
    "name": "solc",
    "version": "0.5.16+commit.9c3226ce.Emscripten.clang"
  },
  "schemaVersion": "3.2.5",
  "updatedAt": "2021-06-29T14:03:52.559Z",
  "networkType": "ethereum",
  "devdoc": {
    "methods": {}
  },
  "userdoc": {
    "methods": {}
  }
}